:020000040800F2
:1000000080060020D1000008AD230008352000083C
:1000100000000000000000000000000000000000E0
:10002000000000000000000000000000B1230008F4
:100030000000000000000000AF230008DD230008DE
:10004000E3000008E3000008E3000008E300000804
:10005000E3000008E3000008E3000008E3000008F4
:10006000E30000087501000885010008E3000008AE
:10007000E300000865240008E3000008E30000082E
:10008000E3000008E3000008E3000008E3000008C4
:10009000E3000008E3000008E3000008E3000008B4
:1000A000E3000008E3000008E3000008E3000008A4
:1000B000E3000008E3000008E30000080348854669
:1000C00000F046F800480047EB30000880060020AA
:1000D0000448804704480047FEE7FEE7FEE7FEE7E6
:1000E000FEE7FEE761240008BD000008D2B201E08F
:1000F0000270401C491EFBD270470022F6E710B583
:1001000013460A4604461946FFF7F0FF204610BD85
:1001100070B50446002903D000202022012310E0FE
:10012000002801D00020C043C046C0460DE025464F
:10013000D5408D4205D30D469540641B1D46954024
:1001400040191546521E002DF1DC214670BD0000FD
:10015000064C0125064E05E0E36807CC2B430C3C1A
:1001600098471034B442F7D3FFF7ACFF14330008BC
:100170003433000880B5024800F02EF880BDC04638
:100180001000002080B5024800F026F880BDC0466F
:100190005400002010B50446094A11460831006891
:1001A000884200D2074AE263884201D3074900E04F
:1001B000054940181421FFF7ABFF8000206410BDF3
:1001C0000004024000000240F8FFFDBFF8FBFDBF45
:1001D000EFF3108072B6FEE7F0B581B0C16B046C2E
:1001E00000910D6802681668730712D504210F4646
:1001F000A7403B462B400CD013689B0602D41368E3
:100200008B43136000994F60C16A00291AD101B075
:10021000F0BD03462033B10717D50227A740394662
:10022000294012D01168890605D411680A24A14317
:100230001160012159700021197000994F60816A85
:100240000029E4D0884701B0F0BD3107DFD508218F
:10025000A1402940DBD011680E25A943116001217E
:100260000A46A240009C6260816300221A705970A5
:10027000016B0029CBD0884701B0F0BDF0B585B047
:1002800000280FD004460068534988420DDC5A49C3
:10029000884215DC5C49884223D05C49884220D0E2
:1002A0005B491CE0012005B0F0BD4C4988420FDCE1
:1002B0004E49884215D04E49884212D04D490EE031
:1002C0004E4988420DD04E4988420AD04D4906E039
:1002D0004349884205D04349884202D04249884276
:1002E00074D16068002809D0102807D00121890343
:1002F000884203D04748962102F0F6FEA0684021CC
:100300000143402903D04348972102F0EDFEE06805
:1003100080210143802903D03E48982102F0E4FE69
:10032000206900280AD001210A02904206D0490221
:10033000884203D03748992102F0D6FE6069002830
:100340000AD001218A02904206D0C902884203D015
:1003500030489A2102F0C8FEA069202101432029DB
:1003600003D02C489B2102F0BFFE25462035E069D2
:100370000C21C841042803D326489C2102F0B4FE76
:1003800002206870C2CC236860680190A068029067
:10039000E06803902069049008681F4A02403243D5
:1003A0003A431A43019802430298024303980243D6
:1003B000049802430A600C3C2046FFF7EBFE002045
:1003C000A06328700121697005B0F0BD1148952126
:1003D00002F08AFE85E7C0467F0002402F040240FB
:1003E00030040240440402405804024080000240AD
:1003F000080402401C040240430002404400024042
:10040000580002406C000240080002401C000240FC
:1004100030000240653200080FC0FFFFF0B58BB01E
:100420000B4604461720C00621180A20C14102913C
:100430000629049304D38348B82102F055FE049B97
:100440001868010C02D180B2002804D17D48B9217E
:1004500002F04AFE049B58687B498842079407DCF7
:1004600012281BD801218140784801421BD115E098
:100470007749884209DC7A49884214D07949884210
:1004800011D0794988420ED008E0724988420AD0DA
:100490007149884207D07149884204D06948BA211D
:1004A00002F022FE049B9868032804D36548BB2110
:1004B00002F01AFE049B1F68002F00D1C0E001204B
:1004C00003906A480799814201D0052000E004208A
:1004D0000090039C20040190002609960CE039430B
:1004E000E9601F683846E040B61C0999091D09916A
:1004F000641C002800D1A3E0601E039D0890854085
:100500002F40EED05868122820D801218140594848
:1005100001421BD0D868032801D8022804D1CB217E
:10052000484802F0E1FD049B0320B040079A91681F
:100530008143D868B040084390605868C006C00F37
:10054000089988405168A9430143516005970320E9
:100550000690B040079DE96881439A68B2400A431B
:10056000EA60596810220A43C743122A20D1029830
:10057000062804D3E321334802F0B6FD049B186932
:10058000082803D3E4212F4802F0AEFD1C2009996E
:1005900008400F218140089AD2089200AA18136AD5
:1005A0008B43049D2969814019432B46079D1162A5
:1005B0002868384059680A461F46069B1A403B4641
:1005C000B24002432A60C800059F8AD5564A106887
:1005D000012108431060106808400A900C21099816
:1005E00001400298042800D3009888400F228A40D6
:1005F000089B06998B430A991F4D59599143014312
:1006000059511B4D2968049B5868019A104201D02A
:10061000394300E0B94329606968820301D5394351
:1006200000E0B9436960A968C20201D5394300E01E
:10063000B943A960E968800200D550E7B9434FE7A4
:100640000BB0F0BD2C320008FFFF10100F000600A9
:10065000FFFF2110000022100000311000003210B6
:1006600000001110000012100000211000100048BE
:10067000000401400600060008000140054800682B
:100680007047C0461B48007802490A681018086085
:100690007047C0467802002010B506480168102255
:1006A0000A4302600024204600F006F800F028F813
:1006B000204610BD00200240B0B504467D20C00099
:1006C0000C490978FFF724FD01460B480068FFF745
:1006D0001FFD00F003FD0125032C09D8002807D1D8
:1006E0000025E84321462A4600F02CF80348046020
:1006F0002846B0BD040000200000002008000020B3
:1007000082B009480168012211430160016811406B
:1007100001910199110742680A434260406808400C
:100720000090009802B070471810024010B50446BF
:10073000002803D50A489B2102F0D6FC204602F08F
:10074000A7FC10BDB0B50C460546042903D30448E8
:100750008B2102F0C9FC2846214602F0A5FCB0BD61
:100760009D320008F0B585B00446006868498842AB
:1007700003D368486E2102F0B7FCA078C007664F2B
:1007800047D0012560680821C841042803D3614887
:10079000742102F0A9FC029529073A1F106808404D
:1007A000039006D110680843106010680840049058
:1007B000049800920191594E3068C00500D482E03F
:1007C0000325280254490968014013D06268024099
:1007D00091420FD0029800044F4B19681A680243E7
:1007E0001A601A6882431A6008464D4A1040186021
:1007F000C8077BD1484F38684949084061680143C0
:1008000039600398002804D1009A10680199884340
:1008100010602078C0070CD0A068042803D33D489E
:10082000BB2102F061FC386903218843A1680143C0
:100830003961207880070FD5E0681021C84104286D
:1008400003D33448C72102F04FFC03200004396968
:100850008143E06808433861A07840070FD52069DC
:100860001221C841042803D32A48D42102F03CFCB9
:100870000320800439698143206908433861207866
:1008800080060DD5606910252843102803D0214823
:10089000DF2102F029FC3869A8436169014339610D
:1008A0006078002540072FD5A069402630434028B6
:1008B00003D01848F92102F017FC3869B043A16948
:1008C0000143396120E00298070230683843306004
:1008D000FFF7D4FE05463068384200D070E7FFF7D6
:1008E000CDFE401B6428F6D903250DE0FFF7C6FEB8
:1008F0000646714F08480068800700D57AE7FFF781
:10090000BDFE801BB842F5D9284605B0F0BDC046F3
:1009100024040500F131000820100240007000405E
:10092000FFFCFFFFF0B581B000286ED00E460446F4
:10093000007840075D4D6AD0022E03D3691C5C48E5
:1009400002F0D2FB5B49086801252840B04209D279
:1009500008680127B8433043086008683840B0424F
:1009600000D096E000962068810716D5400705D58F
:10097000072000026F4A116801431160A06804213A
:10098000C84101460839082900D385E0694A106842
:10099000F0218843A168014311602078C0073DD150
:1009A000444A1068012738400099884205D91068E8
:1009B000B84310601068C0076BD12078400714D589
:1009C000E0680821C841011F042906D3002804D08B
:1009D00036496E31364802F087FB07200002554A3F
:1009E00011688143E0680843106000F07DF85149C8
:1009F00009680906090F314A515CC840324908604C
:100A000000273846FFF758FE43E0012741E0284819
:100A1000294602F069FB022E90D293E76068042811
:100A200004D322492731224802F05EFB6068414925
:100A3000032809D0091F02280BD001280ED109680C
:100A400089032F4625D50DE0096BC9032F4620D514
:100A500008E0096889012F461BD503E0096889076A
:100A60002F4616D5334A11680327B9430143116055
:100A7000FFF704FE0546104E2E4800680C21014089
:100A80006068800081428BD0FFF7F8FD401BB042C8
:100A9000F2D9384601B0F0BD002800D176E703490D
:100AA0002031034802F020FB70E7C0461603000027
:100AB000B931000800200240881300002E310008E0
:100AC000014800687047C0460000002080B5FFF76D
:100AD000F7FF184909684905490F024A515CC840A7
:100AE00080BDC0463E310008B0B512490A68100703
:100AF000830F1148022B1BD3032B11D00323DB03DD
:100B0000896A0F240C400EA1095D94021A40240F3B
:100B10000FA52C5D9A4206D001231B049A4203E0E4
:100B2000064C2046B0BD0548FFF7F2FA4443204684
:100B3000B0BDC0460410024000127A00006CDC0216
:100B40000102030405060708090A0B0C0D0E0F101D
:100B500002030405060708090A0B0C0D0E0F1010FE
:100B6000F0B587B0002800D181E00446006801217B
:100B7000049109020591002807D03F21084004D1C3
:100B800005993931FD4802F0AFFA2078C007FC4FD3
:100B900070D12078800730D5E068022804D3059909
:100BA0007331F64802F0A0FA2069202804D3059991
:100BB0007431F24802F098FA78680007800F0ED07E
:100BC00078680C210140082900D0A8E00320C00368
:100BD000796801400120C003814200D09FE038685D
:100BE000800703D5E068012800D086E13868F82145
:100BF00088432169C900014339602078000756D431
:100C00002078400700D4FBE0A068052804D8012123
:100C100081402320014204D10599E031D74802F0F8
:100C200063FA012003900107F8690840029006D199
:100C3000F8690843F861F869084006900698019140
:100C4000D04E30680599084200D18CE0A668002E8D
:100C500005D0052E00D1AAE0012E00D1ABE0386A04
:100C6000039988433862386A04218843A6E001204A
:100C700007B0F0BD60680528049A04D81146814089
:100C80002320014205D105993F31BC4802F02CFADE
:100C9000049A79680C200140042923D13868800324
:100CA00000D476E76068002800D072E725E1E069AB
:100CB000022804D30599B431B04802F015FA786AD5
:100CC000E16900293FD0012108437862FFF7D6FC93
:100CD0000546786A800793D4FFF7D0FC401B0228B2
:100CE000F7D99FE179680140082906D10320C003A4
:100CF0007968014010048142D0D0606800280390D8
:100D000005D0052800D175E1012800D176E1100455
:100D100039688143396091043868884371E13868E3
:100D2000E168002932D0012108433860FFF7A6FCB2
:100D300005463868800700D558E7FFF79FFC401B41
:100D40000228F6D96EE1012188437862FFF796FC0C
:100D50000546786A800700D452E7FFF78FFC401BF6
:100D60000228F6D95EE13068059908433060FFF744
:100D700085FC054630680599084200D066E7FFF714
:100D80007DFC411B03206429F4D99CE101218843A7
:100D90003860FFF773FC05463868800700D42CE7FD
:100DA000FFF76CFC411B03200229F5D98BE1386A5F
:100DB000042101433962386A039908433862FFF716
:100DC0005DFC0546002E09D0C14E386A800710D45C
:100DD000FFF754FC401BB042F7D923E1BC4E386A00
:100DE000800706D5FFF74AFC411B0320B142F6D924
:100DF00069E10298002803D1F86901998843F861F4
:100E00002078C0063AD56069401D062804D8012123
:100E100081406120014203D1AC48AE4902F064F93F
:100E2000A069202804D3AB48411CA84802F05CF913
:100E30006069411D17D0012800D0C5E0786B0421FE
:100E400001437963786B012101437963FFF716FC55
:100E50000646786B80070AD4FFF710FC811B03203D
:100E60000229F6D92FE1786B042188437863786BE7
:100E7000F8218843A169C90001437963207880067D
:100E800028D4606A032804D3924974318F4802F051
:100E90002BF9606A00281AD079680C220A40082AC7
:100EA0002ED1012829D00320C20378680240F96AB4
:100EB000A36A9A4221D10F221140236B99421CD17F
:100EC00091040840E16A8842049800D0FBE00020C9
:100ED00007B0F0BD206A022804D37E493E317B482A
:100EE00002F002F979680C2001400C294CD1786B92
:100EF000C003C6D5206A0128C3D0049807B0F0BD4E
:100F000001256E067449022800D098E0A06AE90322
:100F100088420BD02904884208D00321C9038842A3
:100F200004D06C497D31694802F0DEF8E06A122194
:100F3000C8410F2804D367497E31644802F0D4F8D1
:100F40000595206BC01F06D3092804D361497F3162
:100F50005E4802F0C9F838685F4908403860FFF71A
:100F60008DFB05463868304200D18BE0FFF786FBE9
:100F7000411B03200229F5D9A5E0C046B93100087C
:100F8000001002400070004079680140082905D136
:100F90000320C003796801408142A8D0786B216AA0
:100FA00000295DD001210D0428437863FFF766FB1B
:100FB0000646786B284200D063E7FFF75FFB811B92
:100FC00003200229F5D97EE0786B0421014379637F
:100FD000786B012188437863FFF750FB0646786BF6
:100FE000800700D44AE7FFF749FB811B0320022951
:100FF000F5D968E090043968014339601104386814
:10100000084338605604FFF739FB0546039800286B
:1010100011D03868304200D0BBE5FFF72FFB401BF2
:101020006428F6D9032007B0F0BDFFF727FB411B6A
:101030000320642947D838683042F6D1A9E53868DA
:1010400008403860FFF71AFB04463868304200D188
:101050003DE7FFF713FB011B03200229F5D932E01E
:1010600001210D04A8437863FFF708FB0646786B5F
:10107000284200D105E7FFF701FB811B032002296D
:10108000F5D920E0F86A0F218843216B0143F9620A
:101090007B20C00379688143E06A0843A16A014369
:1010A000796005980006396801433960FFF7E6FA70
:1010B00004463868304200D009E7FFF7DFFA011B29
:1010C00003200229F5D907B0F0BDC046B9310008A8
:1010D0008813000026020000FFFFFFFE80B501F02C
:1010E00069F980BD70477047F0B581B00D46044680
:1010F00000683C4940180A21C8413B4E072804D8E3
:1011000001218140E120014203D16B48314601F0C9
:10111000EBFF0127F80229680143814203D0711CCB
:10112000654801F0E1FFB80269680143814203D0DC
:10113000B11C614801F0D8FFA8680821C841042803
:1011400003D3F11C5C4801F0CFFFE868000A03D02C
:10115000311D594801F0C8FF380329690143814214
:1011600003D0711D544801F0BFFF78036969014342
:10117000814203D0B11D504801F0B6FFBF03E869BA
:101180003843B84203D0F11D4B4801F0ADFF3C207D
:10119000205C012802D1022001B0F0BD21463C3183
:1011A000002008703F210902EA688A430F218B0260
:1011B000AE689E431643C9026A688A4332430721D8
:1011C00009032B688B431343032149032A698A438C
:1011D0001A4369691143B943EA690A4321684A64B9
:1011E00001B0F0BD00D4FEBF9D070000F0B581B096
:1011F0000C46054600682F4988420ADC0121890710
:10120000884214D09E49884211D0714988420ED03C
:1012100008E0704988420AD09A49884207D0674955
:10122000884204D03B204101234801F05DFF206843
:101230000421C841082805D33B204001411C1E4819
:1012400001F052FF2E463C366068802738438028E4
:1012500005D03B204001811C174801F045FF307844
:10126000012802D1022001B0F0BD022070700121DE
:1012700031702868426870239A4323681343826858
:1012800043600E4B984206DC8B07984209D07C4B9A
:10129000984206D009E0494B984202D0794B9842D7
:1012A00003D1BA43636813438360002030707170C8
:1012B00001B0F0BDFF1300407E310008FF2B01405C
:1012C00070B500280FD0044600683A4988420CDD0A
:1012D0003949884212DD394988421AD03849884252
:1012E00017D0384913E0012070BD384988420ADC24
:1012F0000121890788420CD0614908E032498842BF
:1013000007D0604903E03249884202D0314988421F
:1013100049D1A0680421C84106283DD80121814057
:101320005720014238D0206900280CD001210A0240
:10133000904208D04902884205D0FF201430811C19
:10134000254801F0D1FE26463C36A06980210143A4
:10135000802905D0FF201430C11C1F4801F0C4FEB5
:10136000251D7078002804D100203070204600F040
:1013700035F8022070702068294601F07BF80120C2
:10138000B072B070F07030717071B071F071307215
:1013900070727070002070BDFF201430411C0E4828
:1013A00001F0A2FEBFE7FF2114310B4801F09CFEC3
:1013B000AFE7C046FF1F0040FF3F01400040014033
:1013C000004401400048014000200040FF0F004061
:1013D000001000400014004046310008B0B586B04F
:1013E000002405940494039402940194016801205C
:1013F000820791422FD0224A914236D0214A91420F
:101400003CD1C20220490B1F1D6815431D601B689B
:1014100013400093009A400408390A6802430A60A6
:101420000968014000910220059004940394029001
:101430004020019000980920C00601A9FEF7EEFFA8
:101440000D25284621462246FFF77CF92846FFF75E
:101450006DF906B0B0BD0C490A6802430A6009681C
:1014600001400091009806B0B0BD07480168022213
:1014700011430160006810400090009806B0B0BDB4
:1014800000040040002C01401C100240F0B581B067
:1014900004463C20205C012802D1022001B0F0BDAE
:1014A0000D4627463C370220787001263E700868BA
:1014B0004F2808DC1F2811DD20281CD030281AD026
:1014C000402818D013E06F280DDD702813D03103A9
:1014D000884210D0710388420DD008E000280AD05D
:1014E000102808D003E0502805D0602803D0C44855
:1014F000C44901F0F9FD20688168C34A0A4082604E
:1015000029684F2912DC1F292DDD202930D03029F0
:101510002ED0402900D055E1BC49884200DDCFE003
:10152000B107884200D1D6E0BB49CDE06F2929DD63
:10153000702945D0720391427ED03203914200D08F
:1015400040E1B749884200DC41E1B649884200DC0D
:1015500045E1B049884200D134E1B349884200D125
:1015600030E1B24944E1002902D0102900D029E13C
:10157000A649884216DCB10788421ED0A649884297
:101580001BD015E0502900D192E0602900D019E16C
:101590009E49884200DDBEE0B107884200D1C5E027
:1015A0009D49BCE09A49884207D09A49884204D0B4
:1015B00094497231924801F097FD29682068FFE054
:1015C000B207904990420AD0934A904207D0904A7D
:1015D000904204D013318A4801F086FD8949A868F9
:1015E0000C22D041042804D31631854801F07CFD3B
:1015F000844968680A2804D833468340874A1342DE
:1016000007D1F203904204D017317D4801F06CFD00
:101610007C49E868102803D31831794801F064FD4B
:101620006A68A968EB68206800F080FF206881681C
:1016300077220A438260C5E0B207724990420AD01D
:10164000F44A904207D0F44A904204D02B316C48BF
:1016500001F04AFD6B49A8680C22D041042804D34C
:101660002E31674801F040FD664968680A2804D8B1
:1016700033468340694A134207D1F203904204D0B3
:101680002F315F4801F030FD5E49E868102803D330
:1016900030315B4801F028FD6A68A968EB68206872
:1016A00000F044FFB00321688A6802438A6089E041
:1016B000564988425ADCB107884262D0D54959E080
:1016C000D549884207D05349884204D04D495F31FB
:1016D0004B4801F009FD68680A2804D8314681406A
:1016E0004E4A114207D1F103884204D04549623184
:1016F000434801F0F9FCE868102804D341496331FC
:101700003F4801F0F1FCEA686968206801F0FAF9E5
:101710002068402154E0C049884207D03D498842B2
:1017200004D038494F31364801F0DEFC68680A2899
:1017300004D831468140394A114207D1F103884229
:1017400004D0304952312E4801F0CEFCE868102810
:1017500004D32C4953312A4801F0C6FCEA68696871
:10176000206801F0E0F92068602129E0AA49884258
:1017700007D02849884204D022493F31204801F04F
:10178000B3FC68680A2804D831468140234A1142D4
:1017900007D1F103884204D01A494231184801F0B8
:1017A000A3FCE868102804D316494331144801F01B
:1017B0009BFCEA686968206801F0A4F92068502160
:1017C00000F0BFFE002038707E7001B0F0BD1949F6
:1017D000884209DCB1078842F4D08E4908E01449F8
:1017E0008842EFD08C4903E013498842EAD013497C
:1017F0008842E7D003490C31014801F075FCE1E76C
:1018000046310008271400008800FFFFFF2B01402D
:10181000002C01400040014000040040050400008D
:10182000FF1F0040FF3F01400044014000480140CD
:1018300000200040FF0F0040001000400014004056
:101840007047B0B504468020C54320680169890708
:1018500016D5C168890713D529467E31016101215A
:1018600021778069800703D02046FFF7E9FF05E074
:10187000204600F0D7F8204600F055FA00202077E7
:1018800020680169490717D5C168490714D5294659
:101890007C3101610221217780698005800F03D0AE
:1018A0002046FFF7CDFF05E0204600F0BBF82046BC
:1018B00000F039FA0020207720680169090716D561
:1018C000C168090713D529467831016104212177C0
:1018D000C069800703D02046FFF7B2FF05E020462D
:1018E00000F0A0F8204600F01EFA002020772068C3
:1018F0000169C90617D5C168C90614D529467031D2
:10190000016108212177C0698005800F03D020463E
:10191000FFF796FF05E0204600F084F8204600F02F
:1019200002FA0020207720680169C90708D0C16841
:10193000C90705D029467F310161204600F0F4F93E
:1019400020680169090606D5C168090603D5056145
:101950002046FFF7C7FB20680169490608D5C16822
:10196000490605D5294640310161204600F03CFA80
:1019700020680169890607D5C168890604D56035E4
:1019800005612046FFF7AFFBB0BD000010B586B083
:1019900000210591049103910291019100680122B7
:1019A000930798420FD0DD4B98421CD0D74B9842FA
:1019B0002DD15004194B1C6804431C601B68034064
:1019C0000093100209E001204004144A1368034305
:1019D00013601268024000922020019000980920B4
:1019E000C00602220BE090040C4B1C6804431C60F0
:1019F0001B6803400093102001900098084805924E
:101A0000049103910221029101A9FEF707FD06B09E
:101A100010BDC04600040040002C014014100240DC
:101A20000004004870470000F0B581B017460C462E
:101A300005460C2A04D80120B8407249084205D155
:101A40003C2F03D0E6486E4901F04EFB2068102180
:101A50000143702904D06A48411CE14801F044FB6D
:101A6000A06802263043022804D06548811CDC4867
:101A700001F03AFB20690422104304280AD0604890
:101A8000C11CD74800942C46154601F02DFB2A4670
:101A90002546009C3C20285C012800D1ACE02B4668
:101AA0003C3301261E700220C741032F00D9A1E05C
:101AB0007F443F797F00BF44010F19392868C4492A
:101AC0008842009370DD50491746884275DCC14951
:101AD00088427DD0C04974E02868BD491F468842CD
:101AE00045DCB10788424DD0BC4944E0174600931D
:101AF0002868B10788420AD0B849884207D0B5495A
:101B0000884204D03E492F31B54801F0EDFA2868EB
:101B1000214600F0F9FD2868C16908220A43C26124
:101B2000C169B943C16121691C305FE01F46286863
:101B3000B10788420AD0A949884207D0A5498842FE
:101B400004D02F494031A64801F0CEFA286821463A
:101B500000F050FEF1022868C2690A43C261B10276
:101B6000C2698A43C261216909021C301AE099499D
:101B7000884207D09849884204D021491E319848AC
:101B800001F0B2FA2868214600F052FDF1022868FF
:101B900082690A438261B10282698A438261216952
:101BA000090218303B4622E01746B10788420FD0A1
:101BB0008A4988420CD0544903E05149884207D0F1
:101BC0005049884204D00E490D31854801F08CFA05
:101BD0002868214600F0BEFC2868816908220A4373
:101BE00082618169B943816121691830009B026873
:101BF0000A43026000261E70304601B0F0BDC046A8
:101C00001310000011110000FF43014070B50028BF
:101C10000FD004460068384988420CDD37498842B5
:101C200012DD6D4988421AD03549884217D03549AE
:101C300013E0012070BD364988420ADC0121890782
:101C400088420CD0654908E02F49884207D0614995
:101C500003E03049884202D02F49884246D1A0682B
:101C60000421C84106283BD8012181405720014268
:101C700036D0206900280BD001210A02904207D0FB
:101C80004902884204D02648811C554801F02CFAAC
:101C900026463C36A06980210143802904D0204893
:101CA000C11C4F4801F020FA251D7078002804D18E
:101CB00000203070204600F035F802207070206857
:101CC000294600F0D7FB0120B072B070F07030717F
:101CD0007071B071F071307270727070002070BDF0
:101CE0000F48411C3E4801F0FFF9C2E73C480C494F
:101CF00001F0FAF9B3E7C046FF1F0040FF3F014083
:101D0000004401400048014000200040002C0140F8
:101D1000FF0F00400010004000140040000400408D
:101D20000E0500007047704770470000F0B581B0A5
:101D30000D46044600682649884207DC01218907D0
:101D400088420DD0254988420AD005E021498842C1
:101D500006D02149884203D02148224901F0C4F924
:101D60002868011F042906D3002804D01D48411CFF
:101D70001B4801F0B9F926463C3668680421C84181
:101D8000082804D31748811C154801F0ADF93078B4
:101D9000012802D1022001B0F0BD0220707001279D
:101DA00037702046294600F06FFD002838460AD1DA
:101DB0002068C16840229143C16001218903C26843
:101DC0008A43C260002000213170777001B0F0BDFD
:101DD000FF2B0140002C0140004001400004004066
:101DE00046310008D814000070470000B0B5002844
:101DF0000ED004460068A16900290BD034498842FE
:101E000013DC864988422FD0834988422CD012E0C7
:101E10000120B0BD3249884213DC2D49884218DCCC
:101E20007E49884220D07C491CE02A4988421BD048
:101E30002949884218D0FF212C31284801F054F953
:101E400012E02849884209DC284988420CD02849F8
:101E500008E02049884207D0264903E02249884209
:101E600002D01D4988422ED1A06F002805D17420D0
:101E700000212154204600F03FF82420A06720686C
:101E800001680125A9430160204600F06BFF01288D
:101E900017D0606A002802D0204600F057FE0920C3
:101EA000C00221684A6882434A6088682A229043B7
:101EB00088600868012202430A60204600F01AFF89
:101EC00005462846B0BDFF202C30411DB5E7C04671
:101ED000FF4B0040004C004000380140D832000861
:101EE000FF130140FF1B0140001C01400014014092
:101EF0000018014000500040F0B589B004460026AB
:101F00000896079606960596049600684249884208
:101F100022D0424988427DD16A48816801220892D4
:101F20005204114381608168114003910399016853
:101F3000114301600068104003900320079006964B
:101F4000022005900C20049003980920C00604A9E3
:101F5000FEF764FA09B0F0BD5A488168012508957A
:101F6000AA04114381608168114003910399E90437
:101F700002680A4302600068084003900696022047
:101F8000059003200790800204900398244804A938
:101F9000FEF744FA02956803224D8021224F2F60FC
:101FA0006E60AE600191E9602E616E61AE61E861C4
:101FB0002846FEF763F9002801D0FEF709F91B4A0D
:101FC00010680F218843106025676C62184D10203F
:101FD0000299090314372F606860AE600198E860C9
:101FE0002E616E61AE611646E96110680A210143F7
:101FF00011602846FEF742F9002801D0FEF7E8F804
:102000003068F02188433060E5666C623068A0215A
:102010000143316009B0F0BD004800400044004079
:10202000000800481000002008000240A8000240FC
:1020300054000020FEE70000B0B582B021480168DE
:1020400001221143016000681040019001980924A9
:102050000025204629462A46FEF774FB2046FEF757
:1020600065FB0A24204629462A46FEF76BFB2046DC
:10207000FEF75CFB02B0B0BD81B00121CA0411487B
:10208000036813430360036813400093009A8A05B2
:10209000036813430360036813400093009A4A04E3
:1020A000036813430360036813400093009A890494
:1020B00002680A430260006808400090009801B07E
:1020C0007047C04614100240B0B596B00024159475
:1020D000149413941294119410940F940E940D94DC
:1020E0000C940B940A940994E14892492D4A14C027
:1020F000046041608460C46004610894079406949D
:10210000059404940394029401940838FFF7D8F8D6
:10211000002801D0FEF75CF8012528031290D4486E
:1021200012A9FFF7B3F9002801D0FEF751F8D04803
:10213000FFF76CFD002801D0FEF74AF880201190CF
:1021400010201090CA4810A9FFF750F8002801D0BD
:10215000FEF73EF80B9478480A90602009900C94A2
:102160000D940E940F94C24809A92246FFF75CFC17
:10217000002801D0FEF72CF80694059404940394EB
:1021800002940194A8030890B94801A9FEF7ACFF96
:10219000002801D0FEF71CF8B548FFF7F7FB16B092
:1021A000B0BDC046002C0140B0B594B000241394DB
:1021B0001294119410940F940E940D940C940B940B
:1021C00009940894294884615A490125AA0714C032
:1021D0000460416084600794069405940494039419
:1021E000029401940838FFF76BF8002801D0FDF73E
:1021F000EFFF280310901D4810A9FFF747F90028AA
:1022000001D0FDF7E5FF1948FFF700FD002801D0D8
:10221000FDF7DEFF10250C9505200B9013480BA948
:10222000FFF784FD002801D0FDF7D2FF8020099040
:1022300008950E4808A9FEF7D9FF002801D0FDF740
:10224000C7FF059403943C48029060200190074822
:1022500001A92246FFF7E8FB002801D0FDF7B8FFEF
:102260000248FFF793FB14B0B0BDC046E000002069
:1022700010B594B0002413941294119410940F94F8
:102280000E940D940C940B9409940894284884613E
:1022900028499F4A14C004604160846007940694F2
:1022A000059404940394029401940838FFF708F805
:1022B000002801D0FDF78CFF0120000310901C487E
:1022C00010A9FFF7E3F8002801D0FDF781FF1848B7
:1022D000FFF79CFC002801D0FDF77AFF10200C903E
:1022E00005200B9012480BA9FFF720FD002801D014
:1022F000FDF76EFF099408940D4808A9FEF776FFD4
:10230000002801D0FDF764FF059403940A48029069
:1023100060200190064801A92246FFF785FB0028AE
:1023200001D0FDF755FF0248FFF730FB14B010BD98
:1023300028010020FFFF0000FF7F000010B50B48C0
:1023400000210C220A4B01624162E124640218C0A0
:10235000016041608160C260016141610838FFF73E
:1023600045FD002801D0FDF733FF10BD70010020AE
:102370000044004010B50B4800210C220A4B0162BA
:102380004162E124640218C0016041608160C26062
:10239000016141610838FFF729FD002801D0FDF7F0
:1023A00017FF10BDF401002000480040FEE7704711
:1023B00070470000B0B5401E010E01D00120B0BD35
:1023C000054D68600024E043032100F06DFEAC6021
:1023D000072028602046B0BD10E000E080B5FEF781
:1023E00051F980BD70B598B00BAC34212046FDF793
:1023F00084FE00250A9509950895079517950226EC
:10240000149605200C9001200B90010516910004F4
:1024100015900695059504950395029501950095EF
:102420002046FEF79DFB002815D10A9509950896D0
:102430000720079007A80121FEF774FA00280AD1A7
:1024400004950395054800906846FEF78BF900282F
:1024500001D118B070BDFDF7BBFEC04602000400FC
:102460007047000080B50248FFF7EBF980BDC04619
:1024700098000020B0B5056801229407A04205D05D
:10248000D94B984202D0224B984204D170239D43ED
:102490004B682B4300E02B461E4DA84209DD1E4C25
:1024A000A0420FDCD04CA04212D01E4CA0420FD054
:1024B0002BE0A0420CD0164CA04209D01A4CA042EE
:1024C00006D022E0154CA04202D0154CA0421CD1EF
:1024D00003242402A343CC681C4380239C434B6900
:1024E000234303608B68C3620B688362E34BC318AA
:1024F0000A24E341072B06D814469C40E1231C42E2
:1025000001D0096901634261B0BD1C46E5E7C046E0
:1025100000040040FF2B0140FF4301400048014000
:10252000004401400040014000200040B0B5FF24BD
:1025300024028568A54311431A020A432A43826094
:10254000B0BD826870239A430A430721114381601A
:1025500070470000F0B585B00D460446006A0122C0
:1025600090432062C54827180A20C741206A0221EB
:102570008843AE6806436068029028680390A369A8
:10258000072F049215D8BA40E1210A4211D0E86819
:1025900008210143082905D0B9482449019300F0D6
:1025A000A3FD019B0C208643EA680420824332434A
:1025B00000E03246072F049E34D83046B840E1216F
:1025C000084231D07002A9690143814209D01749FC
:1025D0000D31AB481F46164600F086FD32463B469D
:1025E000049E300269690143814208D00F490E31CF
:1025F000A3481F46164600F077FD32463B460320AF
:102600000002029E86436869A969304308436060FE
:102610007320834303980343A36168686063226265
:1026200005B0F0BD0298F2E70298F0E70D1A00003D
:10263000F0B583B00D460446006A1021884320623D
:10264000206A20218843A9680E01064367682B6829
:10265000A2696548844201D0029614E0E868082126
:102660000143082907D0864826490192009300F0CB
:102670003BFD009B019AC0208643E8680101402091
:102680008143314302917D4820180A21C84107281F
:102690002AD8012631468140E120014224D070022F
:1026A000A9690143814208D016490E31744801924C
:1026B000009300F019FD009B019A30026969014303
:1026C000814208D00F490F316D4801921E4600F03B
:1026D0000BFD3346019A0320800287436869A9698C
:1026E000800038438F0007436760732000028243F5
:1026F00018021043A0616868A0630298206203B0CA
:10270000F0BDC046581A0000F0B585B00D4604462D
:1027100001273902006A0291884320627902206A07
:1027200001918843A9680E020643606804902A68F4
:10273000E369EA48844201D0039615E0E86808217D
:102740000143082907D0E94828490392009300F083
:10275000CBFC009B039A032080028643E8680002BA
:102760002349014031430391444820180A21C841BC
:10277000072835D88740E120074233D0A86901995E
:102780000843884208D019490D31D84816461F46DB
:1027900000F0AAFC3B463246686902990843884229
:1027A00008D012490E31D14816461F4600F09CFC55
:1027B0003B46324603200003049E86436869A969AC
:1027C00000013043090101430846606073208343E0
:1027D0001343E3616868E0630398206205B0F0BDCD
:1027E0000498F2E70498F0E7002C0140A31A0000D7
:1027F00000FBFFFFF0B585B00D460446012630030F
:10280000216A814321621D4820180A21C841226A99
:102810006768AB6829680491E169072829D80391A2
:1028200031468140E120014225D0300269690143EF
:10283000814207D0AD4813490292019300F054FC45
:10284000019B029AB003874368698001384303996A
:102850006060732000028143049800020843E06135
:10286000686820647003824318031043206205B037
:10287000F0BD3846ECE738460399E9E700D4FEBFDF
:1028800046310008EF1A0000F0B581B00D4606464B
:102890000A68496807200B468343306884687727B5
:1028A000BC431C43144384600422D1410024072903
:1028B00000D90DE17944097949008F4403030303EA
:1028C0001D2B39448449884208DC0121890788424C
:1028D00000D1FDE08349884208D1F9E07F49884270
:1028E00000D1F5E07E49884200D1F1E07E494831CF
:1028F0007E4800F0F9FBEBE07749884200DC85E098
:102900007C49884200DD93E07449884200D19AE016
:10291000734991E07049884200DC80E07549884243
:1029200000DDACE06D49884200D1B3E06C49AAE01B
:102930006949884240DC01218907884247D06949BA
:10294000884244D03EE00127B907674B88420AD04D
:102950006449884207D06149884204D063481946D7
:1029600000F0C2FB604BE8680C21C841042804D386
:10297000591C5E4800F0B8FB5B4BA8680A2804D8D5
:10298000394681405A4A114208D1F903884205D09C
:10299000991C56481F4600F0A7FB3B4628691028A3
:1029A00003D3D91C514800F09FFBAA68E9682B6942
:1029B0003068FFF7BBFD8BE04849884207D04849A3
:1029C000884204D048493731484800F08DFBA86858
:1029D0000A2804D801218140454A114208D1012129
:1029E000C903884204D040493831404800F07CFB9C
:1029F0002869102804D33C4939313C4800F074FB65
:102A00002A69A968306800F08EF861E00121890721
:102A1000884218D03349884215D039490CE0012149
:102A20008907884236D02F49884233D034492AE07A
:102A30003149884207D03149884204D02A490F31B0
:102A40002A4800F051FB2869102804D32649103188
:102A5000264800F049FB2868052801D1012437E009
:102A60003068016A026A01239A4302628269F02394
:102A70009A432B691B0113438361016228E01E49BD
:102A8000884207D01D49884204D017492931174888
:102A900000F02AFBA8680A2804D801218140144AC2
:102AA000114208D10121C903884204D00E492A31BC
:102AB0000E4800F019FB2869102804D30A492B316D
:102AC0000A4800F011FB2A69A968306800F01AF87A
:102AD000204601B0F0BDC046FF2B0140002C014054
:102AE0000040014000040040281B0000463100085F
:102AF00005040000FF43014000440140004801403C
:102B000000200040B0B5036A046A0125AC430462AA
:102B10008469F025AC431201224382610A22934367
:102B20000B430362B0BD10B5036A1024A3430362D4
:102B30000F231B0384699C4312032243036A8261AF
:102B4000A022934309011943016210BDF0B581B081
:102B50000446406A000A654D03D06548294600F0E6
:102B6000C3FA2426A05DC0070FD001204704A06A45
:102B70003843B84203D0691D5D4800F0B5FA2068BB
:102B80004168B943A26A0A434260A05D800710D53C
:102B900001200704E06A3843B84204D029460C31CA
:102BA000FA4800F0A1FA20684168B943E26A0A4392
:102BB0004260A05D400710D501208704206B384398
:102BC000B84204D029461331F04800F08DFA20684D
:102BD0004168B943226B0A434260A05D000710D5EB
:102BE0000120C703606B3843B84204D029461A312C
:102BF000E64800F079FA20684168B943626B0A43FD
:102C00004260A05DC00610D501200703A06B3843C9
:102C1000B84204D029462131DC4800F065FA20682A
:102C20008168B943A26B0A438260A05D800610D51B
:102C300001204703E06B3843B84204D029462831CD
:102C4000D24800F051FA20688168B943E26B0A4328
:102C50008260A05D400633D52068D74988420AD0FB
:102C6000D649884207D0CE49884204D029462F3120
:102C7000C64800F039FA01200705206C3843B842F5
:102C800004D029463031C14800F02EFA206841684E
:102C9000B943226C11434160BA4211D1606C1521D5
:102CA000C841042804D329463531B84800F01CFA3D
:102CB0000320400521684A688243606C10434860E5
:102CC000A05D000610D50120C604A06C3043B042C0
:102CD00004D03D35AD48294600F006FA2068416829
:102CE000B143A26C0A43426001B0F0BD640C000025
:102CF000D832000870B582B00546802000242C50E0
:102D0000FDF7BCFC06462868006800070CD514488F
:102D100000900120410500222846334600F05EF96C
:102D2000002801D0032417E02868006840070CD56C
:102D30000B4800900120810500222846334600F010
:102D40004DF9002801D0032406E0284674302021E4
:102D5000A967E96704702C66204602B070BDC046C2
:102D6000FFFFFF01F0B581B004464068854E8649FB
:102D7000884203D38548314600F0B6F9A0680028A0
:102D80000AD001210A03904206D00907884203D0E5
:102D9000711C7E4800F0A8F9E0680C25E841042881
:102DA00003D3B11C794800F09FF90127F802216A8A
:102DB0000143814203D0F11C744800F095F9206969
:102DC00000280AD0B902884207D00321490288426C
:102DD00003D0711D6D4800F087F96069002801D0AB
:102DE000A84303D0B11D694800F07EF9A06908210D
:102DF000C841042803D3F11D644800F075F9009719
:102E0000FF03E0693843B84204D008365F483146D2
:102E100000F06AF9206801685D4A0A40A1682369E8
:102E20000B4366691E43E1690E43164306600322A5
:102E3000120343689343E2681A434260A269236A1B
:102E400013430B221202866896431E4386600022BB
:102E5000504B98420CDC554B984213DC564A90423A
:102E600022D0564A904226D155480068000C1EE0F8
:102E7000494B98420DDC4B4B98421DD04A4B98422F
:102E80001AD018E04A4B984216D04A4B984213D0B9
:102E900011E0424B98420FD0414A90420BD1484832
:102EA00000688007000F03E045480068800B284059
:102EB00044A2125800E010224648B94210D1082A14
:102EC00020D800257A44127952009744041B221B13
:102ED000201B1B1B3500FDF7F9FD00281BD12EE040
:102EE000082A2ED80025C0467A4412795200974409
:102EF00004282F282D2828283E00FDF7E7FD00286C
:102F000028D137E000200125002804D117E0FDF783
:102F1000EBFD002813D0400061684A081018FDF747
:102F2000F7F82D490140009A25D00007400F0843CB
:102F30002168C8602A461EE038460028EBD12A46A0
:102F400019E000200125002804D113E0FDF7CCFD95
:102F500000280FD061684A081018FDF7D9F880B230
:102F60001028009A07D32168C8602A4603E0384633
:102F70000028EFD12A4600206066A066104601B006
:102F8000F0BDC046E10B0000818D5B00D832000827
:102F9000F369FFEFFF130140FF1B0140001C0140DC
:102FA000003801400014014000180140FF4B004070
:102FB000004C0040005000400044004000480040E9
:102FC0003010024000000000040000000800000073
:102FD0000200000000127A00F0FF0000F0B585B09A
:102FE00004930D4604460068C0690840401A4142F7
:102FF00041410020914238D117460290204674305A
:1030000001900A9E01200090C002039007E0206812
:10301000C0692840401B41424141B94224D1701C43
:10302000F5D0FDF72BFB21680A68002E1FD0049B0A
:10303000C01AB0421BD85007E9D5C869039A10429C
:10304000E5D0039808620D2040010A6882430A60B7
:103050008868009A904388602020A067E06700217C
:10306000019A1170D06010E0029805B0F0BD0D20FB
:10307000400182430A608868009A9043886020205B
:10308000A0670021019A1170E067032005B0F0BD30
:10309000002805D41F21084001218140014801601A
:1030A0007047C04600E100E0002805D40322034633
:1030B00093430C4A9A1806E00F220240083A032371
:1030C0009A43074BD2188007C00E8901C9B28140CC
:1030D000FF23834010689843084310607047C04640
:1030E0001CED00E000E400E07047FDF7D5FAFFF7C3
:1030F00079F9FEF7C1FFFEF79FFFFFF71FF9FFF712
:1031000039F9FEF7E1FFFFF74FF8FFF7B1F8FEE7F7
:1031100002E008C8121F08C1002AFAD170477047A0
:10312000002001E001C1121F002AFBD170470000FE
:103130000000000000000102030406070809000067
:103140000000010203042E2E2F447269766572730B
:103150002F53544D3332463078785F48414C5F44AA
:1031600072697665722F5372632F73746D33326692
:103170003078785F68616C5F74696D2E63002E2E05
:103180002F447269766572732F53544D3332463033
:1031900078785F48414C5F4472697665722F53724C
:1031A000632F73746D3332663078785F68616C5F5B
:1031B00074696D5F65782E63002E2E2F44726976D8
:1031C0006572732F53544D3332463078785F4841DF
:1031D0004C5F4472697665722F5372632F73746DFE
:1031E0003332663078785F68616C5F7263632E6338
:1031F000002E2E2F447269766572732F53544D330F
:1032000032463078785F48414C5F44726976657227
:103210002F5372632F73746D3332663078785F6822
:10322000616C5F7263635F65782E63002E2E2F449E
:103230007269766572732F53544D33324630787805
:103240005F48414C5F4472697665722F5372632FF9
:1032500073746D3332663078785F68616C5F677065
:10326000696F2E63002E2E2F447269766572732F5C
:1032700053544D3332463078785F48414C5F447246
:10328000697665722F5372632F73746D33326630B3
:1032900078785F68616C5F646D612E63002E2E2FFD
:1032A000447269766572732F53544D3332463078C9
:1032B000785F48414C5F4472697665722F53726340
:1032C0002F73746D3332663078785F68616C5F633A
:1032D0006F727465782E63002E2E2F4472697665A6
:1032E00072732F53544D3332463078785F48414CD7
:1032F0005F4472697665722F5372632F73746D33F6
:1033000032663078785F68616C5F756172742E63C5
:10331000000000003833000800000020100000000A
:10332000103100084833000810000020700600002B
:10333000203100080000000000127A0001000000A7
:08334000040000000000000081
:04000005080000BD32
:00000001FF
